:020000040800F2
:10000000C0B90020C50C0008CD0A0008CF0A0008BE
:10001000D30A0008D70A0008DB0A00080000000025
:10002000000000000000000000000000DF0A0008DF
:10003000E10A000800000000BB470008111D00088D
:10004000DF0C0008DF0C0008DF0C0008DF0C0008E4
:10005000DF0C0008DF0C0008DF0C0008DF0C0008D4
:10006000DF0C0008DF0C0008DF0C0008DF0C0008C4
:10007000DF0C0008DF0C0008DF0C0008DF0C0008B4
:10008000DF0C0008DF0C0008DF0C000859770108BE
:1000900061770108DF0C0008DF0C0008DF0C0008A6
:1000A000DF0C0008DF0C0008DF0C0008DF0C000884
:1000B000DF0C0008DF0C0008593E0108DF0C0008C7
:1000C000DF0C0008DF0C0008DF0C0008DF0C000864
:1000D000DF0C0008DB1E0008DF0C0008DF0C000846
:1000E000DF0C0008DF0C000869770108DF0C00084E
:1000F000DF0C0008DF0C0008DF0C0008DF0C000834
:10010000DF0C0008DF0C0008DF0C0008DF0C000823
:10011000DF0C0008DF0C0008DF0C0008DF0C000813
:10012000DF0C0008DF0C0008DF0C0008DF0C000803
:1001300000F002F800F06BF80AA090E8000C82448E
:100140008344AAF10107DA4501D100F060F8AFF26B
:10015000090EBAE80F0013F0010F18BFFB1A43F0A5
:1001600001031847B0F70100D0F701000A444FF02F
:10017000000C10F8013B13F0070408BF10F8014B06
:100180001D1108BF10F8015B641E05D010F8016B4B
:10019000641E01F8016BF9D113F0080F1EBF10F8AF
:1001A000014BAD1C0C1B09D16D1E58BF01F801CBD2
:1001B000FAD505E014F8016B01F8016B6D1EF9D555
:1001C0009142D6D37047000000230024002500266A
:1001D000103A28BF78C1FBD8520728BF30C148BFAA
:1001E0000B60704764291AF0918275291AF08E828B
:1001F00078291AF0C58263291AF09D8573291AF0AF
:10020000A285002070471FB51FBD10B510BD1AF0A4
:10021000E5FD1146FFF7F7FF00F0E4FB1AF003FEDF
:1002200003B4FFF7F2FF03BC01F0F2FD10B501F0DB
:10023000E9FD0AF065F801F073FD4FF4165001F086
:10024000FDFD04F0EDFA06F04EF8FE49086880471F
:100250000CF0CEFB0DF0CBFE0BF070FE0BF097FC1C
:100260000FF0C4F9F84901220868F8A111F051FC17
:10027000F54901224868F6A111F04BFC0EF0FCFF95
:1002800015F006FF10BD70B586B0F2A4F4A5F7A670
:100290004FF6FF7005F0D5FF4FF47840F74908801E
:1002A0004FF6FF70F6490880F6488288F6A103A849
:1002B0001AF0C8F903A810210B46C822CDE9001096
:1002C0000021084609F0DCFF0020182343221421F6
:1002D000009009F099FE47F6FF7078231A466421D2
:1002E0000090084609F001FD0C20012307228C2113
:1002F0000090084609F01BFF0020102103237B22F9
:10030000CDE900109621084609F05BFF1020034656
:10031000C8221421CDE900041E2009F0B1FF1020ED
:100320000346C8222821CDE900051E2009F0A8FFB8
:1003300010200346C8223C21CDE900061E2009F00A
:100340009FFFD04802888C231946002009F084FDC5
:10035000CC48028850231946002009F07DFD502327
:1003600096220021104609F077FD1F20C34908801E
:10037000C8A010210B46C822CDE900101E21A020E4
:1003800009F07EFF06B070BD0F25C5A01AF04EF92A
:1003900056E0CA48007885424BD0C8480078042807
:1003A00038D10BF0B9FB4FF40071A0FB0110C44A27
:1003B000C2E900104FF40070C249086008460468A2
:1003C000104622460023D0E9006130461AF009F9B0
:1003D000BD490860BD490020B94AC2E902104FF486
:1003E0000070B84948600846446810462246002319
:1003F000D0E9026130461AF0F4F8B34948604FF48E
:1004000000700DF083FEB249086040200DF07EFEC2
:10041000B049086017F00AF9A848057802E0012001
:10042000AD490860AD4800680528F8D10020AA4908
:1004300008604FF4967300221146104604F098F8B5
:10044000A7E71CB5002400257CE0A548007880B112
:10045000A148006880F00100A249C1F8A001402134
:10046000A14817F09CF9A1A01AF04AF800209C4975
:1004700008706D1C1420B5FBF0F100FB1150C8B9D9
:10048000002010210323CDE900109E4802781E2190
:10049000C02009F096FE04F0EAF8C821B0FBF1F69E
:1004A000002010210A233246CDE90010C82109F0AE
:1004B00088FE0025012004F092FA0446032C0AD19C
:1004C0004FF6E07000906F4802888B235121002086
:1004D00009F00BFC0DE0012C03D101208A490870C2
:1004E00007E0022C05D100207B4908608749C1F84C
:1004F00088010320B0EBA40F09D14FF478401423F6
:100500001A46C8210090084609F0EFFB14E00120CC
:10051000B0EBA40F07D100206F49086001207B4990
:10052000C1F8880108E0A01030B100206A490860D5
:1005300001207649C1F888010523002211461046A2
:1005400004F016F881E77CB54E480088A0F1B405A8
:100550004C484088A0F5917450A0802104EBD472DF
:10056000CDE90010511005EBD57250104823B4228C
:100570000EF02FFBC0B27CBD0EB5FF260DF0ADFE18
:10058000E2E100BF2F48416800208847D8B12D48DC
:1005900080893C490988884215DA2A48C08A50284F
:1005A00011DD2848C08A8C280DDA264AD18A908924
:1005B0004FF478420AF0F7FA012300221146104660
:1005C00003F0D6FFDEE70EF04AF8054600204E495C
:1005D0000870092D34D2DFE805F005FEFDFCFBFABA
:1005E000F9F8F7004AA019F08BFFFFF7ACFF0646B9
:1005F0004BA019F085FF48F651407423E6220A21EA
:100600000090052009F071FB0024FEE048F65140FF
:10061000C4EBC40C464F07EB4C070090B7F802C080
:10062000C4EBC408424F07EB48077F796744BBB26D
:10063000C4EBC40C3E4F07EB4C07B7F800C079E0A1
:100640007AE10000CC00002054030020303A000082
:10065000313A00006D79206C636420746573740016
:100660006D79206C65642074657374006D792075F4
:10067000636F73696920746573740000C60000209D
:10068000C8000020081C00204C43442049443A255F
:10069000303458004350553A2020202500000000F7
:1006A0000A737461727420746F20696E69742075A6
:1006B0007362206C696E6B0A00000000F805002070
:1006C000C0B20020480700205007002000D04C0096
:1006D0006807002004080020A00121423C070020F8
:1006E000790500200000214238080020686164205C
:1006F0005265634461746146726F6D557362486FF1
:1007000073740A004C000020080000200080224280
:10071000D1A1D4F1B5DAD2BBB8F6CDBCB1EA0A00AA
:10072000B4F2BFAA2FB9D8B1D5BFAAB9D80A000070
:1007300005B10020C4EBC408B54F07EB48073F796B
:100740006744BAB2C4EBC40CB14F07EB4C077988CD
:10075000C4EBC40CAE4F07EB4C07388809F0C5FA60
:100760000022C4EBC403AA4800EB43004079CDE962
:100770000002C4EBC40CA64F07EB4C0702923B7976
:10078000C4EBC40CA24F07EB4C077A88C4EBC40C33
:100790009F4F07EB4C073F887F1DB9B2C4EBC40CD9
:1007A0009B4F07EB4C07D7F8060014F025FAC4EB73
:1007B000C401974800EB4100D0F80A0010211F2225
:1007C000C4EBC407924B07E0AEE0A2E096E08DE0F8
:1007D00084E07BE072E069E003EB4703CDE90021B0
:1007E00002901A79C4EBC407894B03EB47035B887B
:1007F000433399B2C4EBC407854B03EB4703188816
:1008000010230DF016FA601CC4B2032CFFF6FEAEE6
:10081000012E4AD148F651407D4F7F1F0090B7F816
:1008200077C097F87A706744BBB2794F7F1FB7F8EB
:1008300075C097F879706744BAB2754F7F1FB7F8E3
:100840007710B7F8750009F050FA0021384690F893
:100850007A00CDE90001C4EBC40C7F1D07EB4C0707
:1008600002913B796A4F7F1FB7F87720B7F8757010
:100870007F1DB9B2664F7F1FD7F87B0014F0BCF91B
:100880003846D0F87F0010211F223B46CDE90021D9
:10089000029093F87920B3F87730433399B23B460E
:1008A000B3F8750010230DF0C4F946E059480078FC
:1008B000032802D158A019F023FE3EE055480078E5
:1008C000032802D158A019F01BFE36E051480078E9
:1008D000032802D158A019F013FE2EE04D480078ED
:1008E000032802D158A019F00BFE26E049480078F1
:1008F000032802D158A019F003FE1EE045480078F5
:10090000032802D158A019F0FBFD032041490870CB
:1009100013E040480078032802D157A019F0F0FDF9
:1009200004203C49087008E03A480078032802D1C6
:1009300055A019F0E5FD00E000BF00BF0423002230
:100940001146104603F014FE1BE614E00020524945
:1009500008604FF4FA7300221146104603F008FEB7
:1009600001204E49C1F888014FF4FA730022114664
:10097000104603F0FDFDE9E770B50446002500BF11
:10098000002003F030F846490860002002F04FFBD9
:100990004449086001F050FD03F0E8FE05460A23D3
:1009A000414A0021AFF25D0003F068FA08233F4A94
:1009B0000021AFF23B4003F061FA09233C4A0021D9
:1009C000AFF2815003F05AFA07233A4A0021AFF2FE
:1009D000476003F053FA142003F0D0FC284603F0DC
:1009E000C9FE70BD10B5FFF721FCFFF74CFC32A02B
:1009F00019F01CFE01F0E3FB1423334A0021AFF28F
:100A0000870003F03BFA01F0FFFC002010BD00005E
:100A100005B10020F8050020D1A1D4F1B5DAB6FE69
:100A2000B8F6CDBCB1EA0A00D1A1D4F1B5DAC8FD5F
:100A3000B8F6CDBCB1EA0A00D1A1D4F1B5DACBC485
:100A4000B8F6CDBCB1EA0A00D1A1D4F1B5DACEE551
:100A5000B8F6CDBCB1EA0A00D1A1D4F1B5DAC1F93A
:100A6000B8F6CDBCB1EA0A00D1A1D4F1B5DAC6DF3F
:100A7000B8F6CDBCB1EA0A00D1A1D4F1B5DAB0CB59
:100A8000B8F6CDBCB1EA0A00D1A1D4F1B5DABEC541
:100A9000B8F6CDBCB1EA0A00888122420080224229
:100AA0000000002004000020740C0020740A0020C4
:100AB000740B0020740D0020726561647920746FDE
:100AC0002073746172740A0074090020704700BFBB
:100AD000FEE700BFFEE700BFFEE700BFFEE770478E
:100AE000704700000CB50020019000906C48006831
:100AF00040F480306A49086000BF6948006800F42B
:100B0000003000900198401C0190009818B901989D
:100B1000B0F5A06FF1D16248006800F4003010B168
:100B20000120009001E0002000900098012843D1AE
:100B30005C48006840F010005A49086008460068A8
:100B400020F0030008600846006840F002000860DA
:100B50005348406852494860084640684860084623
:100B6000406840F4806048600846406820F47C108B
:100B700048600846406840F4E8104860084600684D
:100B800040F08070086000BF4548006800F00070C9
:100B90000028F9D04248406820F0030040494860EE
:100BA0000846406840F00200486000BF3C4840688A
:100BB00000F00C000828F9D10CBD10B5FFF792FF2A
:100BC00010BD10B53648006840F001003449086097
:100BD0000846406834490840314948600846006882
:100BE000324908402E4908600846006820F48020F9
:100BF00008600846406820F4FE0048604FF41F007B
:100C00008860FFF7DAFF4FF000602949086010BDE7
:100C100010B5002100200022214B5B6803F00C017D
:100C200021B1042906D0082928D107E0214B224C04
:100C3000236027E01F4B204C236023E0184B5B68A8
:100C400003F47010164B5B6803F48032022303EB4D
:100C5000904022B9194B4343174C23600DE0104BD1
:100C60005B6803F4003323B1144B4343124C2360FD
:100C700003E0104B4343104C236003E00D4B0E4C3C
:100C8000236000BF00BF064B5B68C3F303130C4C2B
:100C9000E15C094B1B68CB40074C236010BD000092
:100CA00000100240002002400000FFF8FFFFF6FEA7
:100CB00008ED00E000127A000C00002000093D0061
:100CC000100000200948804709480047FEE7FEE77A
:100CD000FEE7FEE7FEE7FEE7FEE7FEE7FEE7FEE7EC
:100CE00004480549054A064B70470000C30B00083D
:100CF00031010008C0B30020C0B90020C0B50020F9
:100D0000C0B5002031490143314A1160704770B5C8
:100D1000002100230F22C47804B32D4C246804F46E
:100D2000E064C4F5E064210AC1F10403CA404478D8
:100D300004FA03F18478144021430901254C067814
:100D4000A155047804F01F050124AC4005786D110D
:100D5000AD0005F1E025C5F8004109E0047804F094
:100D60001F050124AC401C4D0678761145F826403D
:100D700070BD1A4A0A400243154B1B1F1A60704788
:100D800039B1134A121D12680243114B1B1D1A6020
:100D900006E00F4A121D126882430D4B1B1D1A609C
:100DA0007047042808D14FF0E021096941F004019F
:100DB0004FF0E022116107E04FF0E021096921F0D6
:100DC00004014FF0E0221161704700000000FA05B5
:100DD0000CED00E000E400E080E100E080FFFF1F98
:100DE000002044490860091D0860091D0860091DAC
:100DF000086041483F4914310860704700213D496F
:100E00008279002A3AD00A46126803689A430B4650
:100E10001A600A1D126803689A430B1D1A60027952
:100E200011440A6803681A430A60324A0832126899
:100E300003689A432F4B08331A601A1D126803681F
:100E40009A432C4B0C331A604279102A0ED11A1F88
:100E5000126803681A43274B08331A601A1D126878
:100E600003681A43234B0C331A600DE02149427981
:100E700011440A6803681A430A6005E002791144C4
:100E80000A6803689A430A60704700210160017193
:100E90000C21417100218171704716491031096898
:100EA0000143144A10321160704701460020114A74
:100EB000143212680A400AB1012000E00020704795
:100EC0000C49143108607047014600200022094B8C
:100ED0001B6803EA0102074B14331B680B4013B174
:100EE0000AB1012000E00020704702491431086077
:100EF0007047000000040140FFFF0F0010B50446DA
:100F0000CC48844208D10121042000F02DFB0021AF
:100F1000042000F029FB46E0C748844208D10121A3
:100F2000082000F021FB0021082000F01DFB3AE022
:100F3000C248844208D10121102000F015FB002195
:100F4000102000F011FB2EE0BD48844208D10121A1
:100F5000202000F009FB0021202000F005FB22E00A
:100F6000B848844208D10121402000F0FDFA002158
:100F7000402000F0F9FA16E0B348844208D101217C
:100F8000802000F0F1FA0021802000F0EDFA0AE064
:100F9000AE48844207D10121801500F0E5FA002116
:100FA000A01500F0E1FA10BD10B50121084600F0CF
:100FB000DBFA0021012000F0D7FA10BD2DE9F04145
:100FC000024600250026002000230024002791F877
:100FD00003C00CF00F0591F803C00CF0100CBCF12D
:100FE000000F03D091F802C04CEA050591F800C04B
:100FF000BCF1000F31D0146800202BE04FF0010C41
:101000000CFA00F3B1F800C00CEA03069E4220D1AE
:1010100083004FF00F0C0CFA03F7BC4305FA03FCF6
:101020004CEA040491F803C0BCF1280F06D14FF03C
:10103000010C0CFA00FCC2F814C00AE091F803C0DD
:10104000BCF1480F05D14FF0010C0CFA00FCC2F8BE
:1010500010C0401C0828D1D31460B1F800C0BCF106
:10106000FF0F34DD546800202EE000F1080C4FF033
:10107000010808FA0CF3B1F800C00CEA03069E421E
:1010800021D183004FF00F0C0CFA03F7BC4305FA93
:1010900003FC4CEA040491F803C0BCF1280F05D10D
:1010A00000F1080C08FA0CF8C2F8148091F803C09B
:1010B000BCF1480F07D100F1080C4FF0010808FA05
:1010C0000CF8C2F81080401C0828CED35460BDE84C
:1010D000F0814FF6FF710180022181700421C170FF
:1010E00070470246002093680B400BB1012000E0DE
:1010F000002070470146886880B270470246002091
:10110000D3680B400BB1012000E00020704701467E
:10111000C86880B2704701617047416170470AB189
:10112000016100E041617047C16070474FF4803257
:101130000A438261816182618269826970470246E5
:101140000020434B18684FF68073184040EA0210A5
:1011500008433F4B186070473E49C8617047F0B57F
:101160000A46002300240021002500F00046B6F1C5
:10117000004F02D1364EF16901E0354E7168C0F37F
:10118000034583B200F44016B6F5401F08D121F0A4
:1011900070612F4E766826F070662D4F7E6012E0EB
:1011A00000F48016B6F5801F06D1032606FA05F472
:1011B000A14341F0706106E0460D360103FA06F6E0
:1011C000B14341F0706122B1460D360103FA06F6D3
:1011D000314300F00046B6F1004F02D11C4EF161E0
:1011E00001E01B4E7160F0BD30B500228B071C0F73
:1011F0000F2303FA04F2164B08338C1053F82430F3
:101200009343134C08348D1044F8253023468C103A
:1012100053F824308C07240F00FA04F423430C4CB9
:1012200008348D1044F8253030BD0A49DC3108609F
:101230007047000000080140000C01400010014010
:101240000014014000180140001C01400020014032
:101250000000014000002042DF48006840F001002B
:10126000DD49086008464068DC490840DA494860C2
:1012700008460068DA490840D7490860084600680F
:1012800020F4802008600846406820F4FE00486092
:101290004FF41F0088607047CF49096821F48031FE
:1012A000CD4A11601146096821F480211160B0F522
:1012B000803F03D0B0F5802F0ED106E0C649096803
:1012C00041F48031C44A116007E0C349096841F420
:1012D000A021C14A116000E000BF00BF704710B5F7
:1012E00001460022002300204A11012A02D1BA4CF3
:1012F000236806E0022A02D1B74C236A01E0B64C0B
:10130000636A01F01F02012494401C400CB10120CB
:1013100000E0002010BD38B500200090002400251A
:1013200000BF3120FFF7DBFF05460098401C00900E
:101330000098B0F5A06F01D0002DF2D03120FFF75A
:10134000CEFF08B1012400E00024204638BD01464C
:101350000020A14A106820F0F80040EAC1001060A7
:101360007047A04908607047024600209A4B5868B1
:1013700020F47C1042EA01031843974B58607047F1
:1013800098490866704701460020934A506820F04B
:1013900003000843506070478F48406800F00C001D
:1013A0007047014600208C4A506820F0F000084346
:1013B0005060704701460020874A506820F4E06082
:1013C00008435060704701460020834A506820F46B
:1013D000605040EAC1005060704729B17E4A527A9D
:1013E00002437D4B5A7204E07B4A527A82437A4B25
:1013F0005A7270477B49D831086070470146002017
:10140000754A506820F440400843506070470021FE
:10141000714A20321170704A82F82010012802D0DF
:1014200004280AD104E001216B4A2032117005E042
:101430000521694A2032117000E000BF00BF7047EB
:101440006949086070476449096A0143624A116248
:101450007047654944390860704730B50021002263
:10146000002400235C4D6D6805F00C0121B10429B6
:1014700005D0082923D105E05C4D056022E05B4DD5
:1014800005601FE0544D6D6805F47012524D6D6893
:1014900005F48034022505EB92421CB9544D5543A6
:1014A00005600BE04C4D6D6805F400351DB1504DE5
:1014B0005543056002E04D4D5543056002E04B4D3C
:1014C000056000BF00BF444D6D6805F0F0010909DB
:1014D000484D6B5C0568DD4045603F4D6D6805F427
:1014E000E061090A434D6B5C4568DD4085603A4D1B
:1014F0006D6805F46051C90A3E4D6B5C4568DD407E
:10150000C560354D6D6805F44041890B3A4D6B5C03
:10151000C568B5FBF3F5056130BD29B12E4A5269A6
:1015200002432D4B5A6104E02B4A526982432A4BF5
:101530005A61704729B1284A92690243264B9A6141
:1015400004E0254A92698243234B9A61704729B18E
:10155000214AD2690243204BDA6104E01E4AD26973
:1015600082431D4BDA61704729B11B4AD26802439E
:10157000194BDA6004E0184AD2688243164BDA60ED
:10158000704729B1144A12690243134B1A6104E0EF
:10159000114A12698243104B1A617047124940394F
:1015A000086070470F49C86470470B49C87170479D
:1015B0000948406A40F08070074948627047014618
:1015C0000020054A92680A400AB1012000E000208C
:1015D0007047014988727047001002400000FFF810
:1015E000FFFFF6FE000042428004424200127A00F1
:1015F00000093D00200000203000002010B5044606
:10160000BE48844208D101218014FFF7ADFF0021BC
:10161000A014FFF7A9FF16E0B948844208D10121C0
:101620000014FFF7AEFF00212014FFF7AAFF0AE025
:10163000B448844207D10121C013FFF7A2FF002163
:10164000E013FFF79EFF10BD10B50022028802F4E0
:1016500041520B884C8823438C882343CC882343F6
:101660000C8923434C8923438C892343CC8923430E
:101670001A430280838B4FF2FF74234083830B8ACB
:10168000038210BD2DE9F04F85B005460C464FF0A2
:10169000000902274FF000084FF0010B0026B24668
:1016A000A88B4FF240010840A88302202884B5F897
:1016B0001C90A068022801D100BF38E0A08810B9B2
:1016C0004FF0010B01E04FF0020B8D48854200D135
:1016D00000E000BF6846FFF7C0FEDDF800A0E0882C
:1016E000B0F5007F0AD14FEA1A2000EB80004000DD
:1016F000A168B0FBF1F0401D86B20BE04FEA4B1041
:10170000BAFBF0F000EB80004000A168B0FBF1F004
:10171000401D86B20A20B6FBF0F606F00108A6EBE3
:101720000800C0F34F074FF6FF7000EA0828022FA9
:1017300001DBFF2F02DD02274FF00008E08840EABE
:10174000080038432884A088A18908436188084399
:101750002188084340F4006040EA0909A5F81C907C
:1017600005B0BDE8F08F0021018041808180C180FB
:10177000018141818181C18107210182704700215E
:10178000018041808180C1800221816000218181AE
:10179000704721B1028842F04002028004E00288D2
:1017A0004FF6BF731A400280704721B1828B42F41A
:1017B0008062828304E0828B4FF6FF331A4082837B
:1017C000704730B5002400230C110125A540ABB2B1
:1017D0001AB185881D43858002E085889D438580F8
:1017E00030BD1AB183880B43838002E083888B432A
:1017F00083807047818170470146888970474FF622
:10180000FF62914204D0028842F48072028004E0B8
:1018100002884FF6FF631A400280704721B1828828
:1018200042F00402828004E082884FF6FB731A4083
:101830008280704702884FF2FF731A40028002884C
:101840000A4302807047018841F48051018070474B
:1018500021B1028842F40052028004E002884DF671
:10186000FF731A400280704702460020012901D010
:10187000108B00E0908A70470146088A7047B1F5E6
:10188000804F04D1028842F48042028004E0028842
:101890004BF6FF731A4002807047024600201389FE
:1018A0000B400BB1012000E000207047CA430281C9
:1018B0007047F0B50246002000240023002501F007
:1018C0000F070126BE40B4B20B1101269E40B3B2F1
:1018D000968806EA03051689264016B10DB1012047
:1018E00000E00020F0BD10B5002201F00F0401233C
:1018F000A3409AB2D343038110BD000000300140E1
:1019000000380040003C004010B50446FB488442CB
:1019100009D101218803FFF727FE00214FF4804001
:10192000FFF722FE32E0F648844209D10121480443
:10193000FFF727FE00214FF40030FFF722FE25E0DD
:10194000F048844209D101218804FFF71AFE0021E2
:101950004FF48020FFF715FE18E0EB48844209D1D0
:101960000121C804FFF70DFE00214FF40020FFF70E
:1019700008FE0BE0E548844208D101210805FFF785
:1019800000FE00214FF48010FFF7FBFD10BD2DE994
:10199000F04786B005460E460024A24600BFA14689
:1019A0000027B08900B100BF2F462C8A4CF6FF708B
:1019B0000440F08804432C82AC894EF6F3100440B6
:1019C000B08831890843718908430443AC81AC8AEB
:1019D0004FF6FF400440B0890443AC8201A8FFF7F2
:1019E0003CFDC648874202D1DDF810A001E0DDF8D9
:1019F0000CA0A88900F4004040B10AEBCA0000EB3B
:101A00000A1031684900B0FBF1F807E00AEBCA00A0
:101A100000EB0A1031688900B0FBF1F86420B8FBD4
:101A2000F0F004012009642101FB1089A88900F469
:101A3000004040B1322000EBC900B0FBF1F000F0F3
:101A40000700044308E0322000EB09106421B0FBDA
:101A5000F1F000F00F0004432C8106B0BDE8F087E0
:101A60004FF41651016000218180C18001810C2159
:101A7000418100218181704710B502460020108A03
:101A80004FF2FF0318400B884C8823438C88234374
:101A9000CC8823431843108210BD0021018041806F
:101AA0008180C180704721B1828942F400528281D5
:101AB00004E082894DF6FF731A4082817047F0B5C9
:101AC0000346002400260025002040F66A17B9428C
:101AD00000D100BF1846C1F3421401F01F060127D0
:101AE00007FA06F5012C01D10C3004E0022C01D1DB
:101AF000103000E014301AB107682F43076002E08D
:101B00000768AF430760F0BD1AB1838A0B43838235
:101B100002E0838A8B4383827047028A4FF6F07318
:101B20001A400282028A0A430282704782894FF277
:101B3000FF731A40828182890A438281704721B1F2
:101B4000828942F00202828104E082894FF6FD73AD
:101B50001A4082817047028A4FF6DF731A40028270
:101B6000028A0A430282704721B1028A42F480420B
:101B7000028204E0028A4BF6FF731A400282704729
:101B8000C1F308028280704701468888C0F30800CC
:101B90007047818941F0010181817047028BD2B287
:101BA0000283028B42EA012202837047028B02F415
:101BB0007F420283028B0A430283704721B1828AEB
:101BC00042F02002828204E0828A4FF6DF731A40DC
:101BD0008282704721B1828A42F01002828204E040
:101BE000828A4FF6EF731A408282704721B1828A4F
:101BF00042F00802828204E0828A4FF6F7731A40AC
:101C00008282704721B1828942F40042828103E0DE
:101C10008289C2F30E028281704721B1828A42F426
:101C20000062828204E0828A4FF2FF731A4082824D
:101C30007047828A4FF6FB731A408282828A0A4377
:101C40008282704721B1828A42F00202828204E0DD
:101C5000828A4FF6FD731A40828270470246002046
:101C6000B1F5007F00D100BF13880B400BB10120FC
:101C700000E00020704701F40072B2F5007F00D14F
:101C800000BFCA430280704770B50246002400239B
:101C90000025002040F66A16B14200D100BFC1F312
:101CA000421501F01F03012606FA03F3012D02D1AC
:101CB0009689334006E0022D02D1168A334001E0B6
:101CC000968A33400C12012606FA04F41688344032
:101CD00013B10CB1012000E0002070BD10B500224E
:101CE000002340F66A14A14200D100BF0A12012469
:101CF0009440A3B2DC43048010BD000000380140D2
:101D00000044004000480040004C004000500040AB
:101D100010B500F06AFA00F0AEFB00F081FA10BDD9
:101D200010B56FF00400FFF73CF831480068314906
:101D3000B0FBF1F0304908702D4800682D49B0FB28
:101D4000F1F441F28830444305202C4908804FF0DB
:101D5000E020006940F002004FF0E02108610846F1
:101D60004461006940F00100086110BD70B5034690
:101D700000224FF0E02675691F4E367803FB06F40B
:101D800000BF4FF0E026B16910E04FF0E026B069E7
:101D900088420BD0884202D20E1A324402E02E1A38
:101DA0000E4432440146A24200D300E0EDE700BFFA
:101DB00070BD70B5044612480078012811D10F4853
:101DC0000088844206DB0D48008894FBF0F5284625
:101DD00002F09CFB0948008894FBF0F100FB1140E5
:101DE00084B24FF47A7104FB01F0FFF7BFFF70BDBE
:101DF0000C00002000127A00340000203600002081
:101E00006600002010B54FF4A060FEF77BFF10BD08
:101E1000014600BF704770B504460D4600BF4F48ED
:101E2000008800F040000028F9D0E0B24B49091DBD
:101E300008800220FFF7BDFF204670BD10B586B0B8
:101E40000446012144F20400FFF774FB4348FFF706
:101E50005BFD4FF40070ADF8140003208DF8160000
:101E600018208DF8170005A93D48FFF7A7F84FF493
:101E70008060ADF8140004208DF8170005A93848DB
:101E8000FFF79CF825208DF8000003208DF8010055
:101E90008DF8020001208DF803006846FEF737FF39
:101EA00001940020ADF80800ADF80A00ADF80C0070
:101EB000ADF810000C20ADF80E0001A92748FFF77F
:101EC00066FD012240F225512448FFF7F8FD01216B
:101ED0002248FFF7E8FD06B010BD10B500F085F907
:101EE00040F225511D48FFF7CFFE10B31B48FFF706
:101EF0004BFEC4B21B48008800F40040C8B9194822
:101F0000008800F4804060B10A2C03D000201549FD
:101F1000088020E01348008840F400401149088000
:101F200019E00D2C06D10F48008840F480400D497F
:101F3000088010E00B480088C0F30D000A490C54DB
:101F400008480088401C0749088008460088C728C0
:101F500001DD0020088000F063F910BD0038014069
:101F6000000801403C000020780D00207CB50025D1
:101F700014E06946284602F0BFF9064666B9F748FC
:101F800050F8254044B1012C06D0D4E9020100EB01
:101F9000810060640198A064681CC5B23F2DE8D937
:101FA0007CBD002400BF02E0282002F0AFFAEC481C
:101FB00000780028F8D0EB4800686421B0FBF1F00D
:101FC000E84908600846006828B90020E64908701A
:101FD000FF2002F0D3F900BF02F0C8FB0446E3483B
:101FE0000068E34908600020E0490860204602F0EC
:101FF000C1FBDF480068DB490968B0FBF1F0C0F1C4
:102000006400D949087002F05EFBFFF7AFFF1420AF
:1020100002F07CFAE0E700B587B0032000218022BF
:10202000D44BCDE90132CDE903104FF6FE703E23CB
:10203000D14A0090AFF2950001F077FF06AACFA138
:102040003E2002F0DBF807B000BD002400BF00BF57
:1020500002F08CFB0446C5480068401CC349086078
:10206000204602F087FB02F02DFBF1E700B587B0B8
:10207000032000218022C54BCDE90132CDE90310B8
:102080004FF6FF703F23C24A0090AFF2410001F0CB
:102090004CFF06AABFA13F2002F0B0F807B000BD78
:1020A00004E0002200F8012B4A1E91B20029F8D169
:1020B000704770B5C821BB48FFF7F2FF00230FE05F
:1020C000581C85B203EB8300B64901EB800405EB95
:1020D000850001EB8006002020706660581C83B2EA
:1020E000092BEDD303EB8300AE4901EB8004002004
:1020F000207060600846AC49086070BD70B54FF450
:10210000E761AA48FFF7CCFF4FF480719348FFF7CF
:10211000C7FF002413E0601CC5B2C4EBC40000EB91
:102120004000A24901EB8003C5EBC50000EB400075
:1021300001EB80065E619EA0D864601CC4B2152CC1
:10214000E9D3C4EBC40000EB4000984901EB8003E5
:102150000020586196A0D8640020964908609348F2
:102160009549086070BD0021944A1170002004E078
:102170000021934A1154411CC8B20828F8D3002109
:10218000904A1170904A1170904A1160904A116003
:10219000704700208F4908608F4908708F49087088
:1021A0008F4908708F4908708F4908606F4908602F
:1021B0006F4908606B49086069490870704710B53D
:1021C00002F07CFAFFF7E5FFFFF7CDFFFFF796FF80
:1021D000FFF76FFF00F0EAFE01F0C7FBFFF746FFD5
:1021E000FFF719FF02F06BFA10BD7E480078012856
:1021F00008D179480078FF2804D277480078401C3D
:1022000075490870704779496C4A1278885C6C4946
:10221000095C764A515C01EBC0016B4A1170704752
:1022200010B500246F480078012830D102F09EFAE2
:1022300004466948007820B167480078401E664926
:10224000087065480078F8B964480078E0B9FFF78D
:10225000DAFF42485C49097850F821005B49086080
:10226000594800785749097888420DD05748006886
:10227000806B401C5549096888635B480068401CB6
:102280005949086002F091FA204602F073FA10BD35
:1022900010B5002453480078012811D102F066FAE5
:1022A00004464D48007840B94C480078FF2804D2D5
:1022B0004A480078401C49490870204602F05AFA02
:1022C00010BD10B5002402F051FA044642480078CF
:1022D000F8B942480078E0B9FFF795FF1F483A493E
:1022E000097850F8210039490860374800783549A5
:1022F000097888420DD035480068806B401C33490E
:102300000968886338480068401C3749086002F053
:1023100045FA204602F02EFA10BD10B500243148CF
:10232000007801286FD102F021FA04462B4800788A
:1023300080B12A480078401E284908700846007875
:1023400048B92548007838B9204602F013FAFFF75B
:10235000B8FF58E054E04FE04AE000005813002076
:1023600058000020500000204C0000206800002091
:1023700054000020580F00205411002075432F4FA7
:10238000532D4949205374617400000058110020F6
:102390005413002075432F4F532D49492049646C35
:1023A00065000000400E002044000020581400206A
:1023B0003F00000078000020700000205D00002039
:1023C0005E0000205B0000205C0000207400002004
:1023D0006C00002084000020590000205A000020DA
:1023E0006700002066000020400000207ABE01083F
:1023F000204602F0BFF906E0204602F0BBF902E0F9
:10240000204602F0B7F910BD10B5EB48007890B93E
:10241000FFF7F9FEE9480078E9490870E948E7491B
:10242000097850F82100E849086008460068E74943
:10243000086002F0A2F910BD10B50024022002F0DD
:1024400065F802F093F904460020E149086020464F
:1024500002F090F9142002F059F802F087F90446CE
:10246000DB480068DB4908600120DB490870204632
:1024700002F080F910BD70B5002602F074F902F088
:1024800075F90646D5480068401CD44908603046B6
:1024900002F070F9C8480078012853D1D04800787C
:1024A00020B1012804D0022809D103E001250BE066
:1024B000002509E001250120C949087004E0012533
:1024C0000020C749087000BF00BF05B970BDC548EE
:1024D000046833E002F04AF90646E06A50B3E06A65
:1024E000401EE062E06A28BB94F8300000F037003C
:1024F00040B114F8300F00F0C80020700120607067
:10250000303C02E0002084F8310094F8300000F004
:10251000080078B93434A078B34909780843B2493F
:1025200008702078B149085C6178084314F83419C0
:10253000AE4A50546469304602F01CF994F83200F7
:102540003F28C7D100BFC1E740F223107047704752
:1025500010B590F8342001F10B039B5C90F83540E6
:10256000A34301F10B04A35423469B5C23B98B7A4C
:1025700090F83640A3438B7210BD2DE9F04F05460D
:102580000F4690469946A87A99490E5C05F10B00D2
:10259000805D11F800B00BEBC60000F0FF0A89481F
:1025A00050F82A4000202034E0602760207C20EA98
:1025B0000800207484F81190207C203C00F0080072
:1025C00068B994F836008849097808438649087044
:1025D0008648805D94F8351008438449885529461B
:1025E0002046FFF7B5FF5046BDE8F08F10B5774A9B
:1025F0001268D061754A126892F8343000F10B020B
:10260000D25C724B1B6893F835301A436F4B1B68D2
:1026100093F8344000F10B031A55827A6B4B1B6818
:1026200093F836301A438272684A126892F834106E
:102630006E4A525C654B1B6893F835309A436B4B7E
:102640005A541A46525C42B9604A126892F83630BF
:10265000654A12789A43644B1A7010BD01460022F5
:102660008A72002005E0002301F10B021354421C82
:10267000D0B20828F7D3704705E011F8013B00F805
:10268000013B531E9AB2002AF7D170470146002041
:1026900002E0491C421CD0B20A78002AF9D17047E6
:1026A0002DE9F84F05460F4690469946DDE90AABFD
:1026B0000020009002F05AF800904E480468002C68
:1026C00075D0183454F8040C4A490860009802F098
:1026D00051F844F8187CA576002020766076606179
:1026E00044F814BC44F80CAC44F8108C0C9824F852
:1026F000080C24F8069C0020E077E810207705F00D
:102700000700E076217F01208840A077E17E01204C
:102710008840607700206060E060A0602062A06276
:102720006062E0622063AFF278306063183C00269C
:1027300006E0002104F1500040F82610701CC6B2DB
:10274000002EF6D0204602F00DF8204601F0B8FF2A
:1027500002F00CF800901B4840F825402148006822
:1027600060610020A0611F48006810B11D4800682A
:1027700084611C4804603434A0781B4909780843FC
:102780001949087020781949085C6178084314F8E1
:102790003419164A505418480078401C16490870DD
:1027A000009801F0E7FF0020BDE8F88FFFE70098F0
:1027B00001F0E0FF4220F7E7660000205C00002007
:1027C0005B00002058130020740000206C000020E3
:1027D00068000020500000205800002084000020E5
:1027E0007C000020780000205D0000205E000020BA
:1027F0007ABE010870000020670000202DE9F05F1C
:1028000004460F4691461E464FF0000B20780528DF
:1028100004D0012030700020BDE8F09F09F0800A4C
:10282000BAF1000F04D029F080094FF0010801E04F
:102830004FF000080020307001F098FF8346B9F196
:10284000000F2CD0B9F1010F3BD0B9F1020F03D02A
:10285000B9F1030F46D111E0208900EA0705BD4216
:1028600006D1B8F1010F05D12089A843208101E0EC
:1028700070203070584601F07DFF3AE0208900EA70
:10288000070535B1B8F1010F05D12089A843208192
:1028900001E070203070584601F06CFF29E020897B
:1028A00027EA0005BD4206D1B8F1010F05D1208904
:1028B0002843208101E070203070584601F05AFF13
:1028C00017E0208927EA000535B1B8F1010F05D1DD
:1028D00020892843208101E070203070584601F0A3
:1028E00049FF06E0584601F045FF00256F20307093
:1028F00000BF00BF28468FE72DE9F04106460D4690
:102900000027FA48007820B1102028700020BDE888
:10291000F08101F02BFF0746F548046884B1006898
:102920004068F3490860052020702681002060601F
:10293000F0A0E060384601F01DFF0020287004E0A0
:10294000384601F017FF722028702046DFE730B5C7
:1029500001464A6808682AB9CC68606028B1002539
:10296000456002E0106000B142608B6800255D6246
:1029700030BDF0B506460F46B468002028346060CC
:102980002780207A00F0DF00207200206072207A19
:10299000283C88B93434A078D74909780843D64907
:1029A00008702078D549085C6178084314F8341918
:1029B000D24A5054012500E000253046FFF7C7FFFA
:1029C0002846F0BD2DE9F0470446894615464FF0EC
:1029D000000AC648007820B10F2028702046BDE8C4
:1029E000F0872078052803D0012028702046F6E7DC
:1029F00001F0BCFE8246606808B1012700E00027B4
:102A0000B9F1000F03D0B9F1010F3CD119E08FB932
:102A1000B8A0E06000202070B54800686060002029
:102A20002081B3480460504601F0A4FE00202870C5
:102A3000002605E0504601F09DFE492028702646FC
:102A400028E0D4F8048005E000214046FFF791FF1C
:102A5000D8F80080B8F1000FF6D1A6A0E060002001
:102A60002070A3480068606000202081A0480460B6
:102A7000504601F07FFE012F01D1FFF722FC00201C
:102A80002870002606E0504601F074FE07202870EA
:102A9000264600BF00BF3046A1E72DE9F0410546BC
:102AA0000E46144600279148007820B1112020706E
:102AB0000020BDE8F08101F059FE0746287805287E
:102AC00006D0384601F056FE012020700020F0E7C5
:102AD000E86830603068FFF7D9FD8046384601F07D
:102AE00049FE002020704046E3E72DE9F04105460D
:102AF0000E46144600277D48007818B11220207039
:102B0000BDE8F08101F032FE07462878052805D09F
:102B1000384601F02FFE01202070F1E7EE603846C4
:102B200001F028FE0020207000BFE9E7F0B5144650
:102B3000059E734F3F6897F8307047F02007DFF825
:102B4000C0C1DCF800C08CF830700027DFF8B0C1DD
:102B5000DCF800C08CF83170694F3F68FE62684F46
:102B60003F6879620C828B74654F3F688F6047685D
:102B70000F6000274F60C860456805B1696041601B
:102B80005F4F3F6897F834205C4FBF5CDFF870C13F
:102B9000DCF800C09CF835C027EA0C07DFF85CC100
:102BA0000CF802706746BF5C5FB9554F3F6897F8F5
:102BB00036C0514F3F7827EA0C07DFF83CC18CF84C
:102BC0000070F0BD2DE9F04F89B005460F469146E3
:102BD0009A46129E002002904448007828B10220B4
:102BE0003070002009B0BDE8F08F4648007818B179
:102BF0000D2030700020F5E72878052803D001204B
:102C000030700020EEE709F0800BBBF1000F04D01C
:102C100009F07F094FF0010801E04FF0000801F0D2
:102C2000A5FD0290B9F1000F4AD0B9F1010F78D09B
:102C3000B9F1020F03D0B9F1030F71D120E0288957
:102C400000EA0704BC420FD1B8F1010F02D1288974
:102C5000A04328812A4800680485029801F08AFD73
:102C6000002030702046BDE74B463A4604A928466E
:102C7000CDF800A0FFF75AFF029801F07BFD78E045
:102C8000288900EA07047CB1B8F1010F02D1288934
:102C9000A04328811A4800680485029801F06AFD63
:102CA0000020307020469DE74B463A4604A928464E
:102CB000CDF800A0FFF73AFF029801F05BFD58E065
:102CC000288927EA0004BC421ED1B8F1010F02D1C5
:102CD0002889204328810A4800680485029801F069
:102CE00049FD0020307020467CE71AE059000020A2
:102CF000480000203F0000005D0000205E00002032
:102D00006C0000205A0000204B463A4604A9284691
:102D1000CDF800A0FFF70AFF029801F02BFD28E094
:102D20001FE0288927EA00047CB1B8F1010F02D125
:102D3000288920432881B14800680485029801F061
:102D400019FD0020307020464CE74B463A4604A956
:102D50002846CDF800A0FFF7E9FE029801F00AFD31
:102D600007E0029801F006FD00246F203070204635
:102D700038E700BFFFF7A5FA01F0F8FC02909F4882
:102D8000006890F8310020B39C48006890F831004A
:102D9000039000209949096881F8310004A8FFF7E1
:102DA000D6FD00209549096881F83000029801F0AD
:102DB000E1FC00240398012805D0022802D10E204E
:102DC000307003E000BF0A20307000BF00BF204613
:102DD00008E78A480068048DB8F1010F1ED1B9F1E7
:102DE000000F0ED0B9F1010F0CD0B9F1020F03D0D2
:102DF000B9F1030F0AD100E000BF2889A043288160
:102E00000BE000BF28892043288106E0029801F0EA
:102E1000B1FC6F2030700020E4E600BF029801F0A2
:102E2000A9FC002030702046DCE670B5002501F0DA
:102E30009DFC054671480068048D284601F09AFC07
:102E4000204670BD2DE9FC5F0446894692461E4629
:102E5000002000902078052804D001203070002048
:102E6000BDE8FC9F01F082FC0090BAF1000F03D096
:102E7000BAF1010F0AD104E0208920EA090020817B
:102E80000BE0208940EA0900208106E0009801F06B
:102E900071FC712030700020E2E700BF4FF0000BA2
:102EA000656855E0A87C40B3012838D0022802D0DC
:102EB000032844D111E02089298A00EA0107288AE1
:102EC000B84209D139462846FFF753FD8046B8F18C
:102ED000010F01D14FF0010B38E02089298A00EA67
:102EE00001074FB139462846FFF743FD8046B8F148
:102EF000010F01D14FF0010B28E0288A218920EA37
:102F00000107288AB84209D139462846FFF731FD22
:102F10008046B8F1010F01D14FF0010B16E0288A6D
:102F2000218920EA01074FB139462846FFF721FDE4
:102F30008046B8F1010F01D14FF0010B06E0009877
:102F400001F018FC6F203070002089E700BF2D6869
:102F5000002DA7D1009801F00DFCBBF1010F01D1AC
:102F6000FFF7AFF901F002FC009020890190009872
:102F700001F000FC00203070019871E72DE9F0416C
:102F800004460D4600272078052804D0012028702B
:102F90000020BDE8F08101F0E9FB074626893846AC
:102FA00001F0E8FB002028703046F2E72DE9F041FF
:102FB00050211348FFF774F800250EE0681C86B214
:102FC0000F4800EB051400EB061700202070676027
:102FD000AFF2E020E060681C85B2042DEED3084813
:102FE00000EB0514002020706060AFF2F820E06074
:102FF000034804490860BDE8F08100006C0000202F
:10300000080F00204800002070B5044600262078F4
:10301000012801D0002070BD01F0A8FB06466568BC
:1030200000206060304601F0A5FB2846F3E770B54C
:1030300005460026E348007808B1002070BD01F085
:1030400095FB0646E0480468006820B1DE48006849
:103050004068DD490860304601F08CFB3CB101203E
:1030600020700020208165602046FFF7F7FA204697
:10307000E4E72DE9F0470446884615464FF000097D
:103080002078012804D0012028702046BDE8F08770
:10309000CC48007818B10F2028702046F6E701F0E0
:1030A00065FB8146A07A08B1012700E00027B8F14E
:1030B000000F03D0B8F1010F35D117E07FB9002020
:1030C0002070C1480068606000202081BE48046014
:1030D000484601F04FFB00202870002605E04846D6
:1030E00001F048FB49202870264623E005E0002334
:1030F000022219462046FFF740FAA07A0028F6D1AE
:103100002070B1480068606000202081AE480460F3
:10311000484601F02FFB012F01D1FFF7D2F8002024
:103120002870002606E0484601F024FB072028709E
:10313000264600BF00BF3046A8E72DE9F04105460E
:103140000F4614464FF000082878012804D00120CB
:1031500020700020BDE8F0819A48007818B1022064
:1031600020700020F6E79948007818B10D202070F3
:103170000020EFE701F0FAFA80466E6846B10020C1
:103180006860404601F0F6FA002020703046E1E722
:103190008F48006890F8300040F002008C490968C0
:1031A00081F8300000208A49096881F83100884898
:1031B0000068C7622846FFF719FA404601F0DAFABC
:1031C000FFF77FF801F0D2FA80468148006890F856
:1031D000310020B101280DD002280AD105E07C4839
:1031E0000068066A002020700DE000260E20207086
:1031F00009E000BF294676480068FFF7A9F90026D4
:103200000A20207000BF00BF00207149096881F8C2
:1032100030006F49096881F831006D490968C8615B
:103220006B4909680862404601F0A4FA304691E70C
:103230002DE9F04104460F4615464FF0000820786E
:10324000012804D0012028700020BDE8F08101F0A1
:103250008DFA8046A07A20B300267FB1012F0CD1D1
:1032600007E002231A4600212046FFF786F9701C6A
:10327000C6B2A07A0028F4D109E000BF02231A46A2
:1032800000212046FFF779F9701CC6B200BF00BFCD
:10329000404601F06FFAFFF714F80E202870304610
:1032A000D3E7404601F066FA0020287000BFCCE763
:1032B00070B504460D4600262078012801D0012073
:1032C00070BD01F053FA0646A07A60B100230222D5
:1032D00029462046FFF751F9304601F04BFAFEF738
:1032E000F0FF0020ECE7606820B1304601F042FAC0
:1032F0001420E5E76560304601F03CFA0020DFE786
:103300002DE9F04104460E46154600272078012895
:1033100002D00120BDE8F08101F028FA0746A07A2A
:10332000E8B105F0010050B105E00023022231466A
:103330002046FFF722F9A07A0028F6D105E0002305
:10334000022231462046FFF718F9384601F012FAFA
:1033500005F0040008B9FEF7B4FF0020DAE7606862
:1033600020B1384601F006FA1420D3E766603846EB
:1033700001F000FA0020CDE72DE9F04704460D46A4
:103380004FF000092078012802D00120BDE8F08725
:1033900001F0ECF98146A07A287304F10B0705F1DE
:1033A0000408002605E017F8010B08F8010B701C53
:1033B000C6B2082EF7D360682860484601F0DAF9F3
:1033C0000020E3E759000020440000205A000020BC
:1033D0006C0000202DE9F04106460D464FF0000834
:1033E0003078022804D0012028700020BDE8F08148
:1033F00001F0BCF980467468E08A78B12169081D43
:1034000020610F68E08A401EE082A168206988423E
:1034100001D1606820610020287002E01F20287020
:103420000027404601F0A6F93846DFE72DE9F041D4
:1034300006460F464FF00008F748007810B100200C
:10344000BDE8F08101F092F98046F4480568006813
:1034500020B1F24800684068F0490860404601F039
:1034600089F93DB301F082F98046ED480468C4B1A2
:1034700000680068EA490860404601F07BF9666030
:1034800006EB8700A060E6602661A7820020E0824C
:1034900002202870002028816C602846FFF7DEF8A3
:1034A00008E0DE4800686860DC480560404601F0DE
:1034B00061F900252846C3E72DE9F047044689460F
:1034C00015464FF0000A2078022804D00120287009
:1034D0002046BDE8F087D048007818B10F2028704A
:1034E0002046F6E701F042F98246A07A10B14FF08B
:1034F000010801E04FF00008B9F1000F03D0B9F165
:10350000010F45D11FE0B8F1000F15D16668C4481E
:1035100000683060C248066000202070BF48006824
:10352000606000202081BD480460504601F022F90F
:1035300000202870002705E0504601F01BF94920C3
:10354000287027462BE005E0002304221946204678
:10355000FFF713F8A07A0028F6D16668B048006833
:103560003060AF48066000202070AC4800686060A2
:1035700000202081A9480460504601F0FBF8B8F112
:10358000010F01D1FEF79DFE00202870002706E004
:10359000504601F0EFF807202870274600BF00BF13
:1035A000384696E770B50546002601F0DFF8064676
:1035B0006C686068E060606820610020E0823046EE
:1035C00001F0D8F8002070BD2DE9F0470746884685
:1035D00015464FF000093878022804D001202870E1
:1035E0000020BDE8F0878C48007818B102202870D0
:1035F0000020F6E78B48007818B10D2028700020D5
:10360000EFE701F0B3F881467C68E08A98B1216960
:10361000081D20610E68E08A401EE082A1682069D2
:10362000884201D160682061484601F0A3F800207B
:1036300028703046D5E77C48006890F8300040F0AC
:1036400004007949096881F830000020764909684A
:1036500081F8310074480068C0F82C803846FEF7C5
:10366000C5FF484601F086F8FEF72BFE01F07EF814
:1036700081466D48006890F8310020B101280DD0D6
:1036800002280AD105E068480068066A0020287010
:103690000DE000260E20287009E000BF3946624880
:1036A0000068FEF755FF00260A20287000BF00BF03
:1036B00000205D49096881F830005B49096881F89C
:1036C000310059490968C861574909680862484684
:1036D00001F050F8304684E72DE9F04104460F46EA
:1036E00015464FF000082078022804D001202870E9
:1036F0000020BDE8F08101F039F88046A07A20B3BF
:1037000000267FB1012F0CD107E002230422002103
:103710002046FEF732FF701CC6B2A07A0028F4D112
:1037200009E000BF0223042200212046FEF725FF06
:10373000701CC6B200BF00BF404601F01BF8FEF788
:10374000C0FD0E2028703046D3E7404601F012F845
:103750000020287000BFCCE72DE9F04105460E4659
:1037600000272878022802D00120BDE8F08100F06F
:10377000FDFF0746A87A60B100230422314628469F
:10378000FEF7FBFE384600F0F5FFFEF79AFD00203D
:10379000EBE76C68E08AA18A884204DB384600F0D7
:1037A000E9FF1E20E1E7E168081DE0600E60E08AA5
:1037B000401CE082D4E90210884201D16068E060D8
:1037C000384600F0D7FF0020CFE72DE9F04105464D
:1037D0000E4600272878022802D00120BDE8F0819B
:1037E00000F0C4FF0746A87A60B1002304223146E6
:1037F0002846FEF7C2FE384600F0BCFFFEF761FD2A
:103800000020EBE76C68E08AA18A88420EDB38462C
:1038100000F0B0FF1E20E1E7590000204400002026
:10382000800000205A0000206C00002061682069A0
:10383000884201D1A06820612069001F20612069B1
:103840000660E08A401CE082384600F093FF0020CA
:10385000C4E72DE9F04105460F4616464FF0000833
:103860002878022802D00120BDE8F08100F07EFF18
:103870008046A87AE8B106F0010050B105E00023C7
:10388000042239462846FEF778FEA87A0028F6D1A9
:1038900005E00023042239462846FEF76EFE404626
:1038A00000F068FF06F0040008B9FEF70AFD0020EA
:1038B000DAE76C68E08AA18A884204DB404600F0BF
:1038C00059FF1E20D0E706F0020058B16168206958
:1038D000884201D1A06820612069001F2061206911
:1038E000076009E0E168081DE0600F60D4E902109C
:1038F000884201D16068E060E08A401CE082404676
:1039000000F038FF0020AFE72DE9F04705460C46F0
:103910004FF0000A2878022802D00120BDE8F08785
:1039200000F024FF8246A87A207405F10B0804F108
:103930000809002705E018F8010B09F8010B781CAD
:10394000C7B2082FF7D36E68F08A18B130690068E3
:10395000206001E000202060F08AA080B08AE08032
:10396000504600F007FF0020D8E72DE9F04178210C
:103970001048FEF795FB00240DE0601C86B204EBB6
:1039800044000C4901EBC00506EB460001EBC00703
:103990002F60601C84B2042CEFD304EB4400054973
:1039A00001EBC00500202860084603490860BDE817
:1039B000F0810000901B00208000002070B50446BC
:1039C00000262078032801D0002070BD00F0CEFE34
:1039D0000646258915B12089401E2081304600F019
:1039E000C9FE2846F1E770B505460026D2480078A2
:1039F00008B1002070BD00F0B9FE0646CF4804684B
:103A0000006820B1CD4800684068CC490860304665
:103A100000F0B0FE3CB103202070258100206060E2
:103A20002046FEF71BFE2046E4E72DE9F04704465A
:103A3000884615464FF000092078032804D001205D
:103A400028702046BDE8F087BB48007818B10F20E9
:103A500028702046F6E700F089FE8146A07A08B17A
:103A6000012700E00027B8F1000F03D0B8F1010FE3
:103A700035D117E07FB900202070B0480068606041
:103A800000202081AD480460484600F073FE00200D
:103A90002870002605E0484600F06CFE492028709A
:103AA000264623E005E00023012219462046FEF7C2
:103AB00064FDA07A0028F6D12070A04800686060FC
:103AC000002020819D480460484600F053FE012FED
:103AD00001D1FEF7F6FB00202870002606E04846DC
:103AE00000F048FE07202870264600BF00BF304681
:103AF000A8E72DE9F04105460E4614460027287830
:103B0000032803D001202070BDE8F0818A480078A6
:103B100010B102202070F7E78948007810B10D201D
:103B20002070F1E700F022FE0746288940B128897D
:103B3000401E2881384600F01DFE00202070E3E77B
:103B40008048006890F8300040F001007D49096825
:103B500081F8300000207B49096881F831007948FC
:103B60000068C6622846FEF741FD384600F002FEB6
:103B7000FEF7A7FB00F0FAFD07467248006890F8D0
:103B8000310020B1012809D0022806D102E000202E
:103B900020700BE00E20207008E000BF2946694825
:103BA0000068FEF7D5FC0A20207000BF00BF00208F
:103BB0006449096881F830006249096881F8310078
:103BC00060490968C861384600F0D4FD00BF9BE732
:103BD0002DE9F04104460F4615464FF000082078C5
:103BE000032804D0012028700020BDE8F08100F0F7
:103BF000BDFD8046A07A20B300267FB1012F0CD1F5
:103C000007E00223012200212046FEF7B6FC701CCB
:103C1000C6B2A07A0028F4D109E000BF0223012235
:103C200000212046FEF7A9FC701CC6B200BF00BFF1
:103C3000404600F09FFDFEF744FB0E202870304602
:103C4000D3E7404600F096FD0020287000BFCCE787
:103C500070B5044600252078032801D0012070BDEE
:103C600000F084FD0546A07A60B1002301221946C8
:103C70002046FEF782FC284600F07CFDFEF721FB83
:103C80000020ECE720894FF6FF71884207D2208997
:103C9000401C2081284600F06DFD0020DFE728460B
:103CA00000F068FD3320DAE72DE9F04704460D46C1
:103CB0004FF000092078032802D00120BDE8F087EA
:103CC00000F054FD8146A07AA87204F10B0705F1BB
:103CD0000208002605E017F8010B08F8010B701C1C
:103CE000C6B2082EF7D320892880484600F042FD4E
:103CF0000020E3E72DE9F04104460E461546002773
:103D00002078032803D001202870BDE8F08100F05E
:103D10002DFD074600202870208908B1268105E086
:103D2000A07A08B9268101E049202870384600F0C1
:103D300021FD00BFE9E700005900002044000020F9
:103D40005A0000206C0000202DE9FF5F8146884664
:103D50000020009000F00AFD0090F94850F828007B
:103D600030B1009800F006FD282004B0BDE8F09FB7
:103D7000B9F1FF0F03D1F348006890F83290F04892
:103D800050F8294024B9009800F0F4FC2920ECE711
:103D9000012C04D1009800F0EDFC4320E5E74FEA48
:103DA000E80708F0070003900120B84000F0FF0A80
:103DB00001210398814001F0FF0B0020E04941F808
:103DC0002900084640F8284014F8346FA078029083
:103DD0006078343C0190DC48815D01980140D1B1AC
:103DE000D948805D01998843D74988550846805D48
:103DF00028B9D648007802998843D4490870D34836
:103E0000007840EA0A00D1490870CF48C05D40EA16
:103E10000B00CD49C855E569D5B105F10B00805DB2
:103E20000199884305F10B0188550846805D18B952
:103E3000A87A02998843A872A87A40EA0A00A87270
:103E400005F10B00C05D40EA0B0005F10B01C85500
:103E500084F8328084F83470039884F8330084F84E
:103E600036A084F835B0009800F084FCB84800789B
:103E7000012801D1FEF725FA002076E72DE9FE4F53
:103E800006460F4690461C464FF0000900F06EFCB7
:103E90008146B048007828B1484600F06BFC3C20D1
:103EA000BDE8FE8FA64850F8240060BB0120A4495D
:103EB00041F82400484600F05DFC002342463946A4
:103EC000304600F001FC824600200090019003463D
:103ED0000246514602902046FEF7E2FB054635B900
:103EE0009B48007801280CD1FEF7EBF909E000F0BF
:103EF0003DFC81460020924941F82400484600F0EC
:103F000039FC2846CCE7484600F034FC2820C7E7B7
:103F100002F0010343B102F002032BB102E0491E9B
:103F2000002308C00029FAD170472DE9F04F85B071
:103F300081468A4693461C46DDE90F78129D002093
:103F4000039000F013FC03908248007830B103988E
:103F500000F010FC3C2005B0BDE8F08F784850F828
:103F6000240088BB0120764941F82400039800F022
:103F700001FC2A4641463846FFF7CAFF2B465A46FF
:103F80005146484600F0A0FB04901198CDE900800E
:103F900002953A4620460E9B0499FEF781FB0646A1
:103FA00036B96B48007801280CD1FEF78AF909E090
:103FB00000F0DCFB03900020614941F824000398E5
:103FC00000F0D8FB3046C6E7FFE7039800F0D2FBCD
:103FD0002820C0E72DE9F041054600275D4800781C
:103FE00010B14020BDE8F0813F2D01D13E20F9E71E
:103FF00000F0BCFB0746FF2D03D15248006890F843
:1040000032504F4850F8254024B9384600F0B2FBF2
:104010004320E7E7012C04D1384600F0ABFB3D20FC
:10402000E0E714F8340F4849085C61788843217848
:10403000454A505414F834091146085C30B994F8D4
:10404000361042480078884340490870E06918B14A
:104050002046E169FEF77CFA666A16B13046FEF743
:1040600076FC0020E06284F8300084F831003A48A1
:104070000078FF2804D238480078401C3649087080
:10408000384600F077FBFEF762FA00F06FFB074658
:104090003148007820B130480078401E2E49087021
:1040A000204600F00EFB2D480078401E2B4908707A
:1040B0000020234941F82500A06930B9002061693A
:1040C000886127496069086005E0D4E90501486115
:1040D000D4E90510886123480068606121480460C4
:1040E00021A0E064384600F045FB1948007801281B
:1040F00001D1FEF7E6F8002074E72DE9F04104460F
:1041000000273F2C02D13E20BDE8F081FF2C0BD1CF
:1041100000F02CFB07460B48006890F837603846E3
:1041200000F028FB3046EFE700F020FB074604488C
:1041300050F82450D5B9384600F01CFB4320E3E783
:10414000581300206C0000205E0000205D0000205D
:1041500066000020590000205A000020670000205F
:1041600078000020700000203F000000012D04D1E5
:10417000384600F0FFFA3D20C6E73F2085F83700BB
:10418000384600F0F7FA0020BEE72DE9F047064672
:104190000F4614464FF00008D648007820B1112091
:1041A00020700020BDE8F08700F0E0FA8046FF2E86
:1041B00003D1D148006890F83260D04850F82650BA
:1041C00035B9404600F0D6FA432020700020E9E7D8
:1041D000012D06D1404600F0CDFA4320207000208A
:1041E000E0E7E86C38603868FEF750FA81464046F0
:1041F00000F0C0FA002020704846D3E72DE9F041D6
:1042000006460F4614464FF00008BA48007818B129
:1042100012202070BDE8F08100F0A8FA8046FF2E41
:1042200003D1B548006890F83260B44850F8265081
:104230002DB9404600F09EFA43202070EAE7012D98
:1042400005D1404600F096FA43202070E2E7EF6483
:10425000404600F08FFA0020207000BFDAE770B50A
:104260000546002600F082FA0646A44850F825408C
:1042700024B9304600F07EFA462070BD012C04D1EE
:10428000304600F077FA4320F7E794F8300000F06A
:10429000080060B314F8300F00F0F700207014F835
:1042A0003009F8B9E06AC8B93434A078944909787B
:1042B00008439349087020789249085C6178084364
:1042C00014F834198F4A5054304600F053FA8E488F
:1042D0000078012809D1FDF7F4FF06E0304600F030
:1042E00049FA02E0304600F045FA0020C5E73046C2
:1042F00000F040FA4420C0E72DE9F04707460D469C
:104300004FF0000A00202860686000F02FFA824613
:10431000FF2F03D17848006890F83270774850F842
:1043200027402CB9504600F025FA4320BDE8F0871D
:10433000012C04D1504600F01DFA4320F6E7207C02
:1043400000F0010020B9504600F014FA4520EDE7D6
:104350000026D4F80C90D4F80880504600F00AFAF1
:1043600000E0761C58F8041B0029FAD0B000286041
:10437000A9EB0600800068600020D7E72DE9F04136
:1043800005464FF0000800F0F1F98046FF2D05D1F9
:104390005948006890F83250012608E056480068F5
:1043A00090F83200A84201D1012600E000265348CF
:1043B00050F825402CB9404600F0DCF94820BDE813
:1043C000F081012C04D1404600F0D4F94320F6E7F7
:1043D00094F834704B48C05D94F8351088434949CF
:1043E000C8550846C05D30B994F836104448007886
:1043F00088434349087094F8300040F0080084F87E
:104400003000404600F0B6F9012E01D1FDF759FF0A
:104410000020D4E72DE9F04105460E46002700F0C4
:10442000A5F90746FF2D03D13348006890F83250B4
:10443000324850F825402CB9384600F09BF9292025
:10444000BDE8F081012C04D1384600F093F94320F7
:10445000F6E7542221463046FEF70EF9384600F0C2
:1044600089F90020ECE72DE9F04704460E4617468F
:104470004FF0000900F07AF98146FF2C02D11E4866
:10448000056802E01D4850F8245005F1500050F82E
:104490002680484600F06EF9002038704046BDE89E
:1044A000F0872DE9F04704460E46174698464FF030
:1044B000000900F05BF98146FF2C02D10E48056827
:1044C00002E00E4850F8245005F1500040F82670E4
:1044D000484600F04FF9002088F80000BDE8F0875A
:1044E00010B50548006800F03FF9FF20FFF772FDA6
:1044F00010BD0000590000206C000020581300205F
:104500005D0000205E0000206600002070B50546BA
:1045100000266348007800B170BD6248007800B1A1
:10452000FAE71DB300F022F906465F48006890F8EC
:1045300034405E48005D5C49096891F83510884355
:104540005A4908550846005D40B95748006890F838
:10455000361057480078884355490870524800681B
:10456000C562304600F006F9FDF7ABFE00BFD3E7A9
:104570002DE9F04104460D4616461F46484800788E
:1045800010B15520BDE8F0814648007808B13220CE
:10459000F8E7B81CC82148434FF47A71B0FBF1F139
:1045A0004FF461606043C5EB051200EB82003044BC
:1045B00000EBC00202EB001001EBC0084046FFF721
:1045C000A5FF0020DEE770B5054600263F2D01D38C
:1045D0002A2070BD00F0CAF80646364850F825403B
:1045E00024B9304600F0C6F84320F2E7012C04D18C
:1045F000304600F0BFF84320EBE7E06A20B93046D0
:1046000000F0B8F85020E4E70020E06294F83000B1
:1046100000F0370040B114F8300F20F03700207060
:1046200001206070303C02E0002084F8310094F8F2
:10463000300000F00800A8B93434A0781C4909788B
:1046400008431B49087020781849085C61780843C2
:1046500014F83419154A5054304600F08BF8FDF721
:1046600030FE02E0304600F085F80020B1E770B57A
:10467000002500F07BF805460F480468284600F046
:1046800079F8204670BD70B50446002500F06EF83C
:10469000054609480460284600F06CF870BD00002B
:1046A000590000205A0000206C0000205E0000200D
:1046B0005D000020581300208400002070477047E0
:1046C000704770477047704770B5044610464FF00A
:1046D00080750560051F28462C606FF00106051FD8
:1046E00028462E604FF01236051F28462E604FF0E8
:1046F0000336051F28462E604FF00236051F284658
:104700002E607610051F28462E60051F284629605A
:104710004FF01136051F28462E604FF01036051F4A
:1047200028462E604FF00936051F28462E604FF0B0
:104730000836051F28462E604FF00736051F28460D
:104740002E604FF00636051F28462E604FF00536C6
:10475000051F28462E604FF00436051F28462E60A0
:1047600070BD70477047704770470000EFF31080CE
:1047700072B6704780F310887047204C204D25603A
:104780004FF0000484F309881E4C4FF0010525709A
:104790001D4C4FF08055256062B6FEE730B41A4CD0
:1047A0004FF08055256030BC704730B4164C4FF048
:1047B0008055256030BC704700BF72B6EFF30980AA
:1047C00028B1203880E8F00F10490968086000B56A
:1047D0000F4880475DF804EB0E480F490A780270D5
:1047E0000A480E490A680260106890E8F00F20300D
:1047F00080F309884EF0040E62B6704720ED00E0A9
:104800000000FFFF6600002004ED00E06C000020C7
:10481000634700085B0000205C000020740000205B
:1048200008B501211420FCF785FE01218948FCF719
:1048300096FC4FF40040ADF8000048208DF80300CE
:1048400069468548FCF7BAFB2020ADF800004820F7
:104850008DF8030069468148FCF7B0FB0120ADF8F4
:10486000000028208DF8030069467B48FCF7A6FB72
:1048700008BD10B5044614B1012079490870784884
:10488000007868B320217548FCF72BFC58B14FF431
:1048900000417148FCF725FC28B101216E48FCF766
:1048A00020FC01281CD10A20FDF783FA00206C4966
:1048B000087020216948FCF714FC08B9012010BDDC
:1048C0004FF400416448FCF70CFC08B90220F6E7FD
:1048D00001216148FCF705FC012815D10320EEE712
:1048E00020215E48FCF7FDFB01280DD1C1035A4889
:1048F000FCF7F7FB012807D101215748FCF7F1FB32
:1049000010B90120564908700020D8E710B50446B8
:10491000A07830B1012815D002281DD003284BD132
:104920003BE00020A0806072E08808B90120A07000
:10493000A08830B1E0882188884202D0207A401CCB
:1049400020723AE02088E188884202D10220A070DB
:1049500001E00020A07030E0E0882188884219D171
:10496000207A142804DA207A002801DD0120607200
:10497000002020720320A070E06868B1A188E08860
:10498000E2689047012807D1A088401CA08002203F
:10499000A07001E00020A0700FE0E088218888422C
:1049A00009D00020A070206910B1208821698847B3
:1049B000207A401C207200E000BF00BF207A10B1B6
:1049C000207A401C2072207A142801DD00202072F9
:1049D000E088208010BD024601207047704770B506
:1049E0000546002420211D48FCF77BFB1D49C8809B
:1049F0000846FFF78BFF4FF400411748FCF771FBA7
:104A00001949C8800846FFF781FF1648C08868B971
:104A100014488088142802DD44F0020401E044F0C8
:104A200001041048407A08B144F003040E48C088DD
:104A300068B90D488088142802DD44F0080401E0BC
:104A400044F004040848407A08B144F00C042046BD
:104A500070BD00000002300000080140001001405D
:104A6000C4000020880000209C00002010B50446EF
:104A70004FF48071FE48FCF750FB4FF40071FC4886
:104A8000FCF74BFB2146FB48FCF74EFB8021F84826
:104A9000FCF743FB8021F648FCF73DFB4FF4007127
:104AA000F348FCF738FB10BD10B504464FF4807195
:104AB000EF48FCF730FB4FF40071ED48FCF72DFB9D
:104AC0002146EC48FCF730FB8021E948FCF725FB48
:104AD0008021E748FCF71FFB4FF40071E448FCF726
:104AE0001AFB10BD10B54FF08830E2490860091D6F
:104AF00008600020DF490C3108608915DC48FCF7AC
:104B00000AFB4FF40071DA48FCF707FB4021D84854
:104B1000FCF703FBD848808848F68911884202D107
:104B20000220FDF723F9D348FCF7E4FA04464021BC
:104B3000CF48FCF7F0FA4FF40071CD48FCF7EBFAE0
:104B40004FF03330CB490860091D08604FF6FF7005
:104B5000C8490C310860204610BD70B504460D46AA
:104B60002046FFF783FF4FF48071C148FCF7D3FA6A
:104B70004FF40071BE48FCF7D0FA2946BD48FCF757
:104B8000D3FA8021BA48FCF7C8FA8021B848FCF76C
:104B9000C2FA4FF40071B648FCF7BDFA70BD10B50B
:104BA00004462046FFF762FFFFF79CFF10BD10B5DB
:104BB000B1490889FFF75AFF10BD10B504464FF4FC
:104BC0008071AB48FCF7A7FA4FF40071A848FCF7D6
:104BD000A4FA2146A748FCF7A7FA8021A448FCF7CD
:104BE0009CFA8021A248FCF796FA4FF40071A04885
:104BF000FCF791FA10BD30B5014601F01F04C1F376
:104C00004513CA0AE50205EB43151544A8B230BDA9
:104C100070B504460D469848808849F24131884273
:104C200005D09548808845F21031884275D1924967
:104C30004889FFF71BFF4FF480718D48FCF76BFA32
:104C40004FF400718A48FCF768FA21128948FCF792
:104C50006BFA80218648FCF760FA80218448FCF7D3
:104C60005AFA4FF400718248FCF755FA4FF48071FC
:104C70007F48FCF750FA4FF400717D48FCF74DFA7D
:104C8000E1B27C48FCF750FA80217948FCF745FAFC
:104C900080217748FCF73FFA4FF400717448FCF725
:104CA0003AFA75498889FFF7E1FE4FF48071704840
:104CB000FCF731FA4FF400716D48FCF72EFA291217
:104CC0006C48FCF731FA80216948FCF726FA80210C
:104CD0006748FCF720FA4FF400716548FCF71BFAAF
:104CE0004FF480716248FCF716FA4FF40071604887
:104CF000FCF713FAE9B25F48FCF716FA80215C482A
:104D0000FCF70BFA80215A48FCF705FA4FF40071C2
:104D10005748FCF700FA28E1FFE75748808846F635
:104D2000040188427ED154488079012804D1524838
:104D30000088401E001B84B24F494889FFF796FE49
:104D40004FF480714A48FCF7E6F94FF40071484887
:104D5000FCF7E3F921124748FCF7E6F980214448C3
:104D6000FCF7DBF980214248FCF7D5F94FF40071DC
:104D70003F48FCF7D0F94FF480713D48FCF7CBF980
:104D80004FF400713A48FCF7C8F9E1B23948FCF732
:104D9000CBF980213648FCF7C0F980213448FCF774
:104DA000BAF94FF400713248FCF7B5F932498889F5
:104DB000FFF75CFE4FF480712D48FCF7ACF94FF41F
:104DC00000712B48FCF7A9F929122A48FCF7ACF925
:104DD00080212748FCF7A1F980212548FCF79BF9A1
:104DE0004FF400712248FCF796F94FF48071204887
:104DF000FCF791F94FF400711D48FCF78EF9E9B208
:104E00001C48FCF791F980211948FCF786F98021AC
:104E10001748FCF780F94FF400711548FCF77BF94F
:104E2000A3E0FFE71448808845F2105188427CD106
:104E300011494889FFF71AFE4FF480710C48FCF7BE
:104E40006AF94FF400710A48FCF767F92112094822
:104E5000FCF76AF980210648FCF75FF980210448D5
:104E6000FCF759F94FF400710148FCF754F905E0DB
:104E700000100140000C0140081C0020F84949893D
:104E8000491C88B2FFF7F2FD4FF48071F548FCF73A
:104E900042F94FF40071F348FCF73FF9E1B2F248F0
:104EA000FCF742F98021EF48FCF737F98021ED4803
:104EB000FCF731F94FF40071EA48FCF72CF9E849A6
:104EC0008889FFF7D3FD4FF48071E648FCF723F99A
:104ED0004FF40071E348FCF720F92912E248FCF78F
:104EE00023F98021DF48FCF718F98021DD48FCF721
:104EF00012F94FF40071DB48FCF70DF9D8498989A4
:104F0000491C88B2FFF7B2FD4FF48071D548FCF719
:104F100002F94FF40071D348FCF7FFF8E9B2D24828
:104F2000FCF702F98021CF4800E00BE0FCF7F5F830
:104F30008021CC48FCF7EFF84FF40071C948FCF72A
:104F4000EAF812E0C6488079012804D1C4480088F4
:104F5000401E001B84B2C24948892146FFF7FDFD6F
:104F6000BF4988892946FFF7F8FD70BD2DE9F0415A
:104F700005460E46BA480088A84203DDB848408876
:104F8000B04202DC0020BDE8F08131462846FFF740
:104F90003FFEB348808849F2413188420BD0B04887
:104FA000808846F60401884205D0AD48808845F2E5
:104FB0001031884203D12E20FFF758FD0DE0A8489C
:104FC000808845F21051884204D14FF43850FFF7E1
:104FD0004DFD02E02220FFF749FD4FF08830A24945
:104FE0000860091D08604FF6FF709F490C3108608A
:104FF00089159C48FCF78FF84FF400719948FCF72D
:105000008CF840219748FCF788F80120FCF7AEFEA9
:1050100040219448FCF77FF840219248FCF77DF846
:105020000120FCF7A3FE9048FCF764F804464021F9
:105030008C48FCF770F88A48808849F241318842F0
:105040000BD08748808845F21031884205D08448CB
:10505000808845F21051884211D140218148FCF7E7
:105060005CF88148FCF746F8804640217D48FCF713
:1050700052F8E7B24FF6FF7000EA072711E07848D0
:10508000808846F6040188420BD140217548FCF720
:1050900044F840217348FCF73EF87348FCF72AF8BF
:1050A00004464FF400716F48FCF735F84FF0333089
:1050B0006D490860091D08604FF6FF706A490C31A0
:1050C00008606748808849F22531884216D06448D4
:1050D000808844F23551884210D061488088091F89
:1050E00088420BD05E48808848F68911884205D0F6
:1050F0005B4880884BF20551884201D1204642E747
:105100005748808849F2413188420BD05448808802
:1051100045F21031884205D05148808845F210513F
:10512000884207D1E012C002B91240EA411040EAB9
:10513000E82028E72046FFF75EFD24E710B5484841
:10514000808849F2413188420BD04548808846F634
:105150000401884205D04248808845F210318842D7
:1051600003D12920FFF782FC0FE03D48808845F2FB
:105170001051884204D14FF42450FFF777FC04E02B
:1051800040F273110720FFF7E8FC10BD10B534485A
:10519000808849F2413188420BD03148808846F6F8
:1051A0000401884205D02E48808845F2103188429B
:1051B00003D12820FFF75AFC0EE02948808845F2E9
:1051C0001051884204D14FF42050FFF74FFC03E008
:1051D00000210720FFF7C1FC10BD2DE9F041054675
:1051E000002400271E48807901281ED11C48808891
:1051F00046F60401884218D0082D15D2DFE805F0E4
:105200000406080A0C0E101206250DE007250BE017
:10521000042509E0052507E0012505E0002503E058
:10522000032501E0022500BF00BF0D48808849F238
:105230004131884211D00A48808846F604018842EC
:105240000BD00748808845F21031884205D00448C9
:10525000808845F2105188427ED1082D23D205E086
:10526000081C002000100140000C0140DFE805F0A0
:105270000406090C0F12151800BF14E044F0800456
:1052800011E044F040040EE044F0C0040BE044F0B0
:10529000200408E044F0600405E044F0A00402E0CB
:1052A00044F0E00400BF00BFFE48808845F2105182
:1052B000884202D14FF4585700E03627F9488088D9
:1052C00045F21031884207D0F648808845F21051E7
:1052D000884201D044F00804F248808846F6040170
:1052E000884201D144F0020421463846FFF735FCDC
:1052F00004F0200018B9EB48807901280DD1E94865
:105300000088E8494988884214DAE64806884088D7
:10531000E4490880084646800CE0E2480088E149FC
:105320004988884206DDDF4806884088DD490880D4
:1053300008464680DB48808845F2105188427CD17F
:10534000D8494889FFF792FB4FF48071D648FBF7A4
:10535000E2FE4FF4007100E000E2D348FBF7DDFE0F
:105360000021D248FBF7E0FE8021CF48FBF7D5FEB5
:105370008021CD48FBF7CFFE4FF40071CA48FBF700
:10538000CAFEC8494989491C88B2FFF76FFB4FF430
:105390008071C548FBF7BFFE4FF40071C248FBF7B0
:1053A000BCFE0021C148FBF7BFFE8021BE48FBF7D1
:1053B000B4FE8021BC48FBF7AEFE4FF40071BA4842
:1053C000FBF7A9FEB7494989891C88B2FFF74EFB54
:1053D0004FF48071B448FBF79EFE4FF40071B24861
:1053E000FBF79BFEAF480088401EC0F30F21AF487B
:1053F000FBF79AFE8021AC48FBF78FFE8021AA487C
:10540000FBF789FE4FF40071A748FBF784FEA5491E
:105410004989C91C88B2FFF729FB4FF48071A24863
:10542000FBF779FE4FF400719F48FBF776FE9D482D
:105430000078401EC1B29D4800E098E0FBF774FE82
:1054400080219948FBF769FE80219748FBF763FEAE
:105450004FF400719448FBF75EFE92498889FFF78C
:1054600005FB4FF480719048FBF755FE4FF4007137
:105470008D48FBF752FE00218C48FBF755FE80213A
:105480008948FBF74AFE80218748FBF744FE4FF42A
:1054900000718548FBF73FFE82498989491C88B223
:1054A000FFF7E4FA4FF480717F48FBF734FE4FF4C6
:1054B00000717D48FBF731FE00217C48FBF734FE8C
:1054C00080217948FBF729FE80217748FBF723FEEE
:1054D0004FF400717448FBF71EFE72498989891CDC
:1054E00088B2FFF7C3FA4FF480716F48FBF713FEE1
:1054F0004FF400716C48FBF710FE6A484088401E6C
:10550000C0F30F216948FBF70FFE80216648FBF7C7
:1055100004FE80216448FBF7FEFD4FF400716248F1
:10552000FBF7F9FD5F498989C91C88B2FFF79EFA2C
:105530004FF480715C48FBF7EEFD4FF400715A4860
:10554000FBF7EBFD57488078401EC1B25748FBF788
:10555000EBFD80215448FBF7E0FD80215248FBF72A
:10556000DAFD4FF400715048FBF7D5FD28E14D49B5
:105570004889FFF77BFA4FF480714B48FBF7CBFD6E
:105580004FF400714848FBF7C8FD00214748FBF77E
:10559000CBFD80214448FBF7C0FD80214248FBF74A
:1055A000BAFD4FF400714048FBF7B5FD4FF4807130
:1055B0003D48FBF7B0FD4FF400713B48FBF7ADFDF4
:1055C00000213A48FBF7B0FD80213748FBF7A5FDE5
:1055D00080213548FBF79FFD4FF400713248FBF7FF
:1055E0009AFD4FF480713048FBF795FD4FF4007140
:1055F0002D48FBF792FD2B480088401EC0F30F2179
:105600002A48FBF791FD80212748FBF786FD802182
:105610002548FBF780FD4FF400712348FBF77BFD25
:105620004FF480712048FBF776FD4FF400711E485F
:10563000FBF773FD1B480078401EC1B21B48FBF707
:1056400073FD80211848FBF768FD80211648FBF7A1
:1056500062FD4FF400711448FBF75DFD1149888924
:10566000FFF704FA4FF480710F48FBF754FD4FF435
:1056700000710D48FBF751FD00210C48FBF754FD6C
:1056800080210948FBF749FD80210748FBF743FDCE
:105690004FF400710448FBF73EFD4FF4807102485F
:1056A00006E00000081C002000100140000C014032
:1056B000FBF731FD4FF40071FE48FBF72EFD002192
:1056C000FD48FBF731FD8021FA48FBF726FD8021DC
:1056D000F848FBF720FD4FF40071F648FBF71BFD7F
:1056E0004FF48071F348FBF716FD4FF40071F14859
:1056F000FBF713FDF1484088401EC0F30F21EE4830
:10570000FBF712FD8021EB48FBF707FD8021E948FC
:10571000FBF701FD4FF40071E648FBF7FCFC4FF48A
:105720008071E448FBF7F7FC4FF40071E148FBF7A8
:10573000F4FCE2488078401EC1B2DF48FBF7F4FC7D
:105740008021DC48FBF7E9FC8021DA48FBF7E3FC29
:105750004FF40071D748FBF7DEFC31E0082D1CD276
:10576000DFE805F004070A0D0F12151844F03004A5
:1057700013E044F0100410E044F020040DE000BFFA
:105780000BE044F0380408E044F0280405E044F05D
:10579000180402E044F0080400BF00BFC748808836
:1057A00048F68911884204D1112746F2400004438B
:1057B00002E0032744F4805421463846FFF7CDF930
:1057C000BDE8F08170B504460D4629462046FFF736
:1057D0001FFAFFF7ECF94FF48071B648FBF79BFC1A
:1057E0004FF40071B348FBF798FCB5480188B24804
:1057F000FBF79AFC8021AF48FBF78FFC8021AD4876
:10580000FBF789FC4FF40071AA48FBF784FC70BDDC
:1058100070B504460D461646A848808849F24131C5
:10582000884205D0A548808845F21031884275D15C
:10583000A2494889FFF71AF94FF480719D48FBF798
:105840006AFC4FF400719B48FBF767FC21129A48F1
:10585000FBF76AFC80219748FBF75FFC80219548A5
:10586000FBF759FC4FF400719248FBF754FC4FF4DE
:1058700080719048FBF74FFC4FF400718D48FBF7A7
:105880004CFCE1B28C48FBF74FFC80218948FBF7C8
:1058900044FC80218748FBF73EFC4FF400718548AB
:1058A000FBF739FC85498889FFF7E0F84FF48071F0
:1058B0008048FBF730FC4FF400717E48FBF72DFC6D
:1058C00029127D48FBF730FC80217A48FBF725FC44
:1058D00080217848FBF71FFC4FF400717548FBF7F7
:1058E0001AFC4FF480717348FBF715FC4FF40071FC
:1058F0007048FBF712FCE9B26F48FBF715FC8021FA
:105900006C48FBF70AFC80216A48FBF704FC4FF463
:1059100000716848FBF7FFFB2BE1FFE767488088D1
:1059200045F2105188427DD164494889FFF79EF8BD
:105930004FF480715F48FBF7EEFB4FF400715D4858
:10594000FBF7EBFB21125C48FBF7EEFB802159488B
:10595000FBF7E3FB80215748FBF7DDFB4FF40071B9
:105960005448FBF7D8FB55494989491C88B2FFF7D1
:105970007DF84FF480714F48FBF7CDFB4FF4007179
:105980004C48FBF7CAFBE1B24B48FBF7CDFB80214B
:105990004848FBF7C2FB80214648FBF7BCFB4FF4AD
:1059A00000714448FBF7B7FB44498889FFF75EF86C
:1059B0004FF480713F48FBF7AEFB4FF400713D4858
:1059C000FBF7ABFB29123C48FBF7AEFB80213948C3
:1059D000FBF7A3FB80213748FBF79DFB4FF40071D9
:1059E0003448FBF798FB35498989491C88B2FFF791
:1059F0003DF84FF480712F48FBF78DFB4FF4007199
:105A00002C48FBF78AFBE9B22B48FBF78DFB802182
:105A10002848FBF782FB80212648FBF77CFB4FF4EC
:105A2000007100E003E02348FBF775FBA1E0234889
:105A3000808846F6040188427ED12048807901287A
:105A400004D11E480088401E001B84B21B494889AF
:105A5000FFF70CF84FF480711648FBF75CFB4FF42E
:105A600000711448FBF759FB21121348FBF75CFB4C
:105A700080211048FBF751FB80210E48FBF74BFBC0
:105A80004FF400710B48FBF746FB4FF48071094857
:105A9000FBF741FB4FF400710648FBF73EFBE1B218
:105AA0000548FBF741FB80210248FBF736FB8021CC
:105AB000004807E000100140000C0140081C0020D5
:105AC000C6000020FBF727FB4FF40071FD48FBF7F1
:105AD00022FBFD498889FEF7C9FF4FF48071F94820
